{
  "_format": "hh-sol-artifact-1",
  "contractName": "Counter",
  "sourceName": "contracts/Counter.sol",
  "abi": [
    {
      "anonymous": false,
      "inputs": [
        {
          "indexed": false,
          "internalType": "uint32",
          "name": "counter",
          "type": "uint32"
        }
      ],
      "name": "CounterInc",
      "type": "event"
    },
    {
      "inputs": [],
      "name": "count",
      "outputs": [],
      "stateMutability": "nonpayable",
      "type": "function"
    },
    {
      "inputs": [],
      "name": "getCounter",
      "outputs": [
        {
          "internalType": "uint32",
          "name": "",
          "type": "uint32"
        }
      ],
      "stateMutability": "view",
      "type": "function"
    }
  ],
  "bytecode": "0x608060405234801561001057600080fd5b506101d1806100206000396000f3fe608060405234801561001057600080fd5b50600436106100365760003560e01c806306661abd1461003b5780638ada066e14610045575b600080fd5b610043610063565b005b61004d6100ec565b60405161005a9190610124565b60405180910390f35b60008081819054906101000a900463ffffffff16809291906100849061016e565b91906101000a81548163ffffffff021916908363ffffffff160217905550507fb09f51db20aa473fdbfaa438388bca074ae4954884c8a48c9095abee19067dba60008054906101000a900463ffffffff166040516100e29190610124565b60405180910390a1565b60008060009054906101000a900463ffffffff16905090565b600063ffffffff82169050919050565b61011e81610105565b82525050565b60006020820190506101396000830184610115565b92915050565b7f4e487b7100000000000000000000000000000000000000000000000000000000600052601160045260246000fd5b600061017982610105565b915063ffffffff8214156101905761018f61013f565b5b60018201905091905056fea26469706673582212207b3f24c339ebd84e0976ffb2915be5ad9115a7287161b416459a0821dc490a9564736f6c634300080a0033",
  "linkReferences": {},
  "deployedLinkReferences": {}
}